{"abi":[{"type":"function","name":"setValue","inputs":[{"name":"_value","type":"uint256","internalType":"uint256"}],"outputs":[],"stateMutability":"nonpayable"},{"type":"function","name":"value","inputs":[],"outputs":[{"name":"","type":"uint256","internalType":"uint256"}],"stateMutability":"view"}],"bytecode":{"object":"0x6080604052348015600e575f5ffd5b5060dc80601a5f395ff3fe6080604052348015600e575f5ffd5b50600436106030575f3560e01c80633fa4f2451460345780635524107714604d575b5f5ffd5b603b5f5481565b60405190815260200160405180910390f35b605c6058366004606c565b605e565b005b60678160026082565b5f5550565b5f60208284031215607b575f5ffd5b5035919050565b8082018082111560a057634e487b7160e01b5f52601160045260245ffd5b9291505056fea26469706673582212207c3522b3e35b15eaa93d4c2c9c4f1ae81d1d80ec2bd03f95cbf9fee3ece12c9c64736f6c634300081c0033","linkReferences":{}},"methodIdentifiers":{"setValue(uint256)":"55241077","value()":"3fa4f245"},"id":21}