{"abi":[{"type":"fallback","stateMutability":"payable"},{"type":"receive","stateMutability":"payable"},{"type":"function","name":"getDataToTransact","inputs":[{"name":"numberToUpdate","type":"uint256","internalType":"uint256"}],"outputs":[{"name":"","type":"bytes","internalType":"bytes"}],"stateMutability":"pure"},{"type":"function","name":"readStorage","inputs":[],"outputs":[{"name":"valueAtStorageSlotZero","type":"uint256","internalType":"uint256"}],"stateMutability":"view"},{"type":"function","name":"setImplementation","inputs":[{"name":"newImplementation","type":"address","internalType":"address"}],"outputs":[],"stateMutability":"nonpayable"}],"bytecode":{"object":"0x6080604052348015600e575f5ffd5b5061021d8061001c5f395ff3fe608060405260043610610037575f3560e01c806331fadddf1461004e578063d784d4261461006f578063df31349e146100ad57610046565b36610046576100446100d9565b005b6100446100d9565b348015610059575f5ffd5b505f546040519081526020015b60405180910390f35b34801561007a575f5ffd5b5061004461008936600461016e565b7f360894a13ba1a3210667c828492db98dca3e2076cc3735a920a3ca505d382bbc55565b3480156100b8575f5ffd5b506100cc6100c736600461019b565b61010b565b60405161006691906101b2565b6101096101047f360894a13ba1a3210667c828492db98dca3e2076cc3735a920a3ca505d382bbc5490565b610150565b565b60608160405160240161012091815260200190565b60408051601f198184030181529190526020810180516001600160e01b0316635524107760e01b17905292915050565b365f5f375f5f365f845af43d5f5f3e80801561016a573d5ff35b3d5ffd5b5f6020828403121561017e575f5ffd5b81356001600160a01b0381168114610194575f5ffd5b9392505050565b5f602082840312156101ab575f5ffd5b5035919050565b602081525f82518060208401528060208501604085015e5f604082850101526040601f19601f8301168401019150509291505056fea264697066735822122013c7b7c029dff95144606101f8341936876fed1ec551ec20671986e095cfa5fe64736f6c634300081c0033","linkReferences":{}},"methodIdentifiers":{"getDataToTransact(uint256)":"df31349e","readStorage()":"31fadddf","setImplementation(address)":"d784d426"},"id":21}